{
  "_format": "hh-sol-artifact-1",
  "contractName": "ProductBacklog",
  "sourceName": "contracts/ProductBacklog.sol",
  "abi": [
    {
      "inputs": [
        {
          "internalType": "address",
          "name": "_scrumTeamContract",
          "type": "address"
        }
      ],
      "stateMutability": "nonpayable",
      "type": "constructor"
    },
    {
      "anonymous": false,
      "inputs": [
        {
          "indexed": true,
          "internalType": "uint256",
          "name": "itemId",
          "type": "uint256"
        },
        {
          "indexed": false,
          "internalType": "bytes32",
          "name": "oldHash",
          "type": "bytes32"
        },
        {
          "indexed": false,
          "internalType": "bytes32",
          "name": "newHash",
          "type": "bytes32"
        },
        {
          "indexed": false,
          "internalType": "uint256",
          "name": "timestamp",
          "type": "uint256"
        }
      ],
      "name": "BacklogItemDataUpdated",
      "type": "event"
    },
    {
      "anonymous": false,
      "inputs": [
        {
          "indexed": true,
          "internalType": "uint256",
          "name": "itemId",
          "type": "uint256"
        },
        {
          "indexed": true,
          "internalType": "uint256",
          "name": "teamId",
          "type": "uint256"
        },
        {
          "indexed": true,
          "internalType": "address",
          "name": "createdBy",
          "type": "address"
        },
        {
          "indexed": false,
          "internalType": "enum ProductBacklog.Priority",
          "name": "priority",
          "type": "uint8"
        },
        {
          "indexed": false,
          "internalType": "bytes32",
          "name": "dataHash",
          "type": "bytes32"
        },
        {
          "indexed": false,
          "internalType": "uint256",
          "name": "timestamp",
          "type": "uint256"
        }
      ],
      "name": "BacklogItemRegistered",
      "type": "event"
    },
    {
      "anonymous": false,
      "inputs": [
        {
          "indexed": true,
          "internalType": "uint256",
          "name": "itemId",
          "type": "uint256"
        },
        {
          "indexed": false,
          "internalType": "uint256",
          "name": "timestamp",
          "type": "uint256"
        }
      ],
      "name": "BacklogItemRemoved",
      "type": "event"
    },
    {
      "anonymous": false,
      "inputs": [
        {
          "indexed": true,
          "internalType": "uint256",
          "name": "itemId",
          "type": "uint256"
        },
        {
          "indexed": false,
          "internalType": "enum ProductBacklog.Status",
          "name": "oldStatus",
          "type": "uint8"
        },
        {
          "indexed": false,
          "internalType": "enum ProductBacklog.Status",
          "name": "newStatus",
          "type": "uint8"
        },
        {
          "indexed": false,
          "internalType": "address",
          "name": "changedBy",
          "type": "address"
        },
        {
          "indexed": false,
          "internalType": "uint256",
          "name": "timestamp",
          "type": "uint256"
        }
      ],
      "name": "BacklogItemStatusChanged",
      "type": "event"
    },
    {
      "inputs": [
        {
          "internalType": "uint256",
          "name": "",
          "type": "uint256"
        }
      ],
      "name": "backlogItems",
      "outputs": [
        {
          "internalType": "uint256",
          "name": "itemId",
          "type": "uint256"
        },
        {
          "internalType": "uint256",
          "name": "teamId",
          "type": "uint256"
        },
        {
          "internalType": "address",
          "name": "createdBy",
          "type": "address"
        },
        {
          "internalType": "enum ProductBacklog.Priority",
          "name": "priority",
          "type": "uint8"
        },
        {
          "internalType": "enum ProductBacklog.Status",
          "name": "status",
          "type": "uint8"
        },
        {
          "internalType": "uint256",
          "name": "createdAt",
          "type": "uint256"
        },
        {
          "internalType": "uint256",
          "name": "updatedAt",
          "type": "uint256"
        },
        {
          "internalType": "bytes32",
          "name": "dataHash",
          "type": "bytes32"
        }
      ],
      "stateMutability": "view",
      "type": "function"
    },
    {
      "inputs": [
        {
          "internalType": "uint256",
          "name": "_itemId",
          "type": "uint256"
        }
      ],
      "name": "getBacklogItemInfo",
      "outputs": [
        {
          "internalType": "uint256",
          "name": "teamId",
          "type": "uint256"
        },
        {
          "internalType": "address",
          "name": "createdBy",
          "type": "address"
        },
        {
          "internalType": "enum ProductBacklog.Priority",
          "name": "priority",
          "type": "uint8"
        },
        {
          "internalType": "enum ProductBacklog.Status",
          "name": "status",
          "type": "uint8"
        },
        {
          "internalType": "uint256",
          "name": "createdAt",
          "type": "uint256"
        },
        {
          "internalType": "uint256",
          "name": "updatedAt",
          "type": "uint256"
        },
        {
          "internalType": "bytes32",
          "name": "dataHash",
          "type": "bytes32"
        }
      ],
      "stateMutability": "view",
      "type": "function"
    },
    {
      "inputs": [
        {
          "internalType": "uint256",
          "name": "_teamId",
          "type": "uint256"
        },
        {
          "internalType": "enum ProductBacklog.Status",
          "name": "_status",
          "type": "uint8"
        }
      ],
      "name": "getItemsByStatus",
      "outputs": [
        {
          "internalType": "uint256[]",
          "name": "",
          "type": "uint256[]"
        }
      ],
      "stateMutability": "view",
      "type": "function"
    },
    {
      "inputs": [
        {
          "internalType": "uint256",
          "name": "_teamId",
          "type": "uint256"
        }
      ],
      "name": "getTeamBacklogItems",
      "outputs": [
        {
          "internalType": "uint256[]",
          "name": "",
          "type": "uint256[]"
        }
      ],
      "stateMutability": "view",
      "type": "function"
    },
    {
      "inputs": [
        {
          "internalType": "uint256",
          "name": "_teamId",
          "type": "uint256"
        }
      ],
      "name": "getTeamItemCount",
      "outputs": [
        {
          "internalType": "uint256",
          "name": "",
          "type": "uint256"
        }
      ],
      "stateMutability": "view",
      "type": "function"
    },
    {
      "inputs": [
        {
          "internalType": "uint256",
          "name": "_teamId",
          "type": "uint256"
        }
      ],
      "name": "getTeamStatusCounts",
      "outputs": [
        {
          "internalType": "uint256",
          "name": "todoCount",
          "type": "uint256"
        },
        {
          "internalType": "uint256",
          "name": "inProgressCount",
          "type": "uint256"
        },
        {
          "internalType": "uint256",
          "name": "doneCount",
          "type": "uint256"
        },
        {
          "internalType": "uint256",
          "name": "cancelledCount",
          "type": "uint256"
        }
      ],
      "stateMutability": "view",
      "type": "function"
    },
    {
      "inputs": [
        {
          "internalType": "uint256",
          "name": "_itemId",
          "type": "uint256"
        }
      ],
      "name": "isItemActive",
      "outputs": [
        {
          "internalType": "bool",
          "name": "",
          "type": "bool"
        }
      ],
      "stateMutability": "view",
      "type": "function"
    },
    {
      "inputs": [],
      "name": "nextItemId",
      "outputs": [
        {
          "internalType": "uint256",
          "name": "",
          "type": "uint256"
        }
      ],
      "stateMutability": "view",
      "type": "function"
    },
    {
      "inputs": [
        {
          "internalType": "uint256",
          "name": "_teamId",
          "type": "uint256"
        },
        {
          "internalType": "enum ProductBacklog.Priority",
          "name": "_priority",
          "type": "uint8"
        },
        {
          "internalType": "bytes32",
          "name": "_dataHash",
          "type": "bytes32"
        }
      ],
      "name": "registerBacklogItem",
      "outputs": [
        {
          "internalType": "uint256",
          "name": "",
          "type": "uint256"
        }
      ],
      "stateMutability": "nonpayable",
      "type": "function"
    },
    {
      "inputs": [
        {
          "internalType": "uint256",
          "name": "_itemId",
          "type": "uint256"
        }
      ],
      "name": "removeBacklogItem",
      "outputs": [],
      "stateMutability": "nonpayable",
      "type": "function"
    },
    {
      "inputs": [],
      "name": "scrumTeamContract",
      "outputs": [
        {
          "internalType": "contract ScrumTeam",
          "name": "",
          "type": "address"
        }
      ],
      "stateMutability": "view",
      "type": "function"
    },
    {
      "inputs": [
        {
          "internalType": "uint256",
          "name": "",
          "type": "uint256"
        },
        {
          "internalType": "enum ProductBacklog.Status",
          "name": "",
          "type": "uint8"
        }
      ],
      "name": "statusCount",
      "outputs": [
        {
          "internalType": "uint256",
          "name": "",
          "type": "uint256"
        }
      ],
      "stateMutability": "view",
      "type": "function"
    },
    {
      "inputs": [
        {
          "internalType": "uint256",
          "name": "",
          "type": "uint256"
        },
        {
          "internalType": "uint256",
          "name": "",
          "type": "uint256"
        }
      ],
      "name": "teamBacklog",
      "outputs": [
        {
          "internalType": "uint256",
          "name": "",
          "type": "uint256"
        }
      ],
      "stateMutability": "view",
      "type": "function"
    },
    {
      "inputs": [
        {
          "internalType": "uint256",
          "name": "_itemId",
          "type": "uint256"
        },
        {
          "internalType": "bytes32",
          "name": "_newDataHash",
          "type": "bytes32"
        }
      ],
      "name": "updateItemDataHash",
      "outputs": [],
      "stateMutability": "nonpayable",
      "type": "function"
    },
    {
      "inputs": [
        {
          "internalType": "uint256",
          "name": "_itemId",
          "type": "uint256"
        },
        {
          "internalType": "enum ProductBacklog.Status",
          "name": "_newStatus",
          "type": "uint8"
        }
      ],
      "name": "updateItemStatus",
      "outputs": [],
      "stateMutability": "nonpayable",
      "type": "function"
    }
  ],
  "bytecode": "0x608034607557601f6114f938819003918201601f19168301916001600160401b03831184841017607a57808492602094604052833981010312607557516001600160a01b03811690819003607557600480546001600160a01b031916919091179055600160035560405161146890816100918239f35b600080fd5b634e487b7160e01b600052604160045260246000fdfe608080604052600436101561001357600080fd5b60003560e01c9081630d4798cc14611121575080631052a23214610ef55780631372b83214610eb957806337268bee14610e22578063674d6ee614610a5b5780636a86897414610a3d578063775131bd14610a145780638c9398dc1461099f5780638de2041c146109385780638f6a5ab0146108d3578063b064645b146105c4578063bb98769d1461049e578063cc2d16ab14610257578063d25c18e7146101115763ef18921e146100c457600080fd5b3461010c57604036600319011261010c5760243560043560005260016020526040600020805482101561010c576020916100fd916111c2565b90549060031b1c604051908152f35b600080fd5b3461010c5761011f36611149565b8160005260016020526040600020916040518084602082965493848152019060005260206000209260005b81811061023e57505061015f925003846112a5565b6000526002602052604060002061017582611168565b816000526020526040600020549161018c83611406565b9261019a60405194856112a5565b8084526101a9601f1991611406565b0136602085013760009060005b815181101561022c576101c9818361141e565b5160005260006020528360ff60026040600020015460a81c166101eb82611168565b6101f481611168565b14610202575b6001016101b6565b91610224600191610213858561141e565b5161021e828961141e565b526113f7565b9290506101fa565b6040518061023a8782611188565b0390f35b845483526001948501948894506020909301920161014a565b3461010c57604036600319011261010c5760043560243581151580610493575b610280906111f0565b8160005260006020526102ad600360ff60026040600020015460a81c166102a681611168565b141561123c565b6102b88115156113ab565b600082815260208181526040918290206001810154600480549451637d9e10f560e01b81529081018290523360248201529194936001600160a01b03169290919081604481865afa90811561043f5760009161044b575b509061034b926103206080936112d4565b604051630f33c9cf60e11b815260048101929092523360248301529092839190829081906044820190565b03915afa801561043f5760029160009161040d575b5061036a81611168565b036103b8578160609160057f9a537506833557131af500fe2f66a23f77e1244d4bbf5bac3028924302b81a0294019181835493556004429101556040519182526020820152426040820152a2005b60405162461bcd60e51b815260206004820152602760248201527f4f6e6c792050726f64756374204f776e65722063616e20757064617465206974604482015266656d206461746160c81b6064820152608490fd5b61042f915060803d608011610438575b61042781836112a5565b810190611332565b50505085610360565b503d61041d565b6040513d6000823e3d90fd5b9190506020823d60201161048b575b81610467602093836112a5565b8101031261010c5761034b926103206104816080946112c7565b929350509261030f565b3d915061045a565b506003548210610277565b3461010c57602036600319011261010c57600435801515806105b9575b6104c4906111f0565b600052600060205260e06040600020604051906104e082611288565b8054825260018101549160208101928352600282015491604082019360018060a01b038416855260ff808560a01c1694606085019561051e81611168565b865260a81c16608084019061053281611168565b815260038301549160a0850192835287600560048601549560c0880196875201549501948552519560018060a01b0390511694519061057082611168565b519161057b83611168565b519251935194604051968752602087015261059581611168565b60408601526105a381611168565b6060850152608084015260a083015260c0820152f35b5060035481106104bb565b3461010c576105d236611149565b811515806108c8575b6105e4906111f0565b81600052600060205261060a600360ff60026040600020015460a81c166102a681611168565b60008281526020818152604091829020600181018054600480549551637d9e10f560e01b81529081018290523360248201529095929491936001600160a01b039092169181604481855afa801561043f5760009061088d575b61066d91506112d4565b604051630f33c9cf60e11b81526004810186905233602482015290608090829060449082905afa90811561043f5760009161086b575b506106ad81611168565b60028114908115610857575b50156107f557600283019260ff845460a81c16926106d683611168565b6106df84611168565b8284146107a45782608095610772927f8a3c2b2a41ba873b73c5094d769d8160f16911f0f1f53cfe252219e6cfaf2f0f986000526002602052604060002061072688611168565b87600052602052604060002061073c8154611364565b9055546000526002602052604060002061075583611168565b82600052602052604060002061076b81546113f7565b9055611387565b6004429101556040519161078581611168565b825261079081611168565b6020820152336040820152426060820152a2005b60405162461bcd60e51b815260206004820152602360248201527f53746174757320697320616c72656164792073657420746f20746869732076616044820152626c756560e81b6064820152608490fd5b60405162461bcd60e51b815260206004820152603460248201527f4f6e6c792050726f64756374204f776e6572206f7220536372756d204d61737460448201527365722063616e206368616e67652073746174757360601b6064820152608490fd5b6001915061086481611168565b14866106b9565b610884915060803d6080116104385761042781836112a5565b505050866106a3565b506020813d6020116108c0575b816108a7602093836112a5565b8101031261010c576108bb61066d916112c7565b610663565b3d915061089a565b5060035482106105db565b3461010c57602036600319011261010c5760043560009081526002602081815260408084208480528252808420546001855281852054938552818520546003865294829020548251918252928101939093528201929092526060810191909152608090f35b3461010c57602036600319011261010c5760043580151580610994575b80610968575b6020906040519015158152f35b5060005260006020526020600360ff60026040600020015460a81c1661098d81611168565b141561095b565b506003548110610955565b3461010c57602036600319011261010c576004356000526001602052604060002060405190816020825491828152019160005260206000209060005b8181106109fe5761023a856109f2818703826112a5565b60405191829182611188565b82548452602090930192600192830192016109db565b3461010c57600036600319011261010c576004546040516001600160a01b039091168152602090f35b3461010c57600036600319011261010c576020600354604051908152f35b3461010c57606036600319011261010c5760043560243590600482101561010c5760048054604051637d9e10f560e01b81529182018390523360248301526044803594926001600160a01b039092169190602090829081855afa801561043f57600090610de7575b610acd91506112d4565b604051630f33c9cf60e11b815260048101849052336024820152608081604481855afa801561043f57600291600091610dc5575b50610b0b81611168565b03610d6d576020602491610b208615156113ab565b6040519283809263ef43aaeb60e01b82528760048301525afa90811561043f57600091610d33575b5015610cf95760035491604051610b5e81611288565b838152600560208201838152604083013381526060840190610b7f87611168565b868252610c0f60808601916000835260a087019242845260c088019442865260e08901968d88528c6000526000602052604060002099518a555160018a0155600289019260018060a01b0390511683549151610bda81611168565b610be381611168565b6001600160a81b03199092161760a09190911b60ff60a01b161782555190610c0a82611168565b611387565b5160038501555160048401555191015580600052600160205260406000209384549468010000000000000000861015610ce35785610c549160016020980181556111c2565b81549060031b9086821b91600019901b1916179055816000526002855260406000206000805285526040600020610c8b81546113f7565b9055610c986003546113f7565b60035560405192610ca881611168565b835284830152426040830152827fe8b2672c3150c0913a35a6e9d1dec47664c7328e16081605194824c75d05560b60603394a4604051908152f35b634e487b7160e01b600052604160045260246000fd5b60405162461bcd60e51b81526020600482015260126024820152715465616d206973206e6f742061637469766560701b6044820152606490fd5b90506020813d602011610d65575b81610d4e602093836112a5565b8101031261010c57610d5f906112c7565b84610b48565b3d9150610d41565b60405162461bcd60e51b815260206004820152602a60248201527f4f6e6c792050726f64756374204f776e65722063616e20706572666f726d20746044820152693434b99030b1ba34b7b760b11b6064820152608490fd5b610dde915060803d6080116104385761042781836112a5565b50505086610b01565b506020813d602011610e1a575b81610e01602093836112a5565b8101031261010c57610e15610acd916112c7565b610ac3565b3d9150610df4565b3461010c57602036600319011261010c5760043560005260006020526101006040600020805490600181015490600281015460ff8160a01c1660ff8260a81c16906003840154926005600486015495015495604051978852602088015260018060a01b03166040870152610e9581611168565b6060860152610ea381611168565b608085015260a084015260c083015260e0820152f35b3461010c57610ec736611149565b906000526002602052604060002090610edf81611168565b6000526020526020604060002054604051908152f35b3461010c57602036600319011261010c5760043580151580611116575b610f1b906111f0565b806000526000602052610f41600360ff60026040600020015460a81c166102a681611168565b600081815260208181526040918290206001810154600480549451637d9e10f560e01b8152908101829052336024820152919390926001600160a01b03909116919081604481855afa801561043f576000906110db575b610fa291506112d4565b604051630f33c9cf60e11b81526004810183905233602482015290608090829060449082905afa801561043f576002916000916110b9575b50610fe481611168565b0361106857600282019060ff825460a81c1690600052600260205260406000209061100e81611168565b60005260205260406000206110238154611364565b9055600360a81b60ff60a81b198254161790556004429101557ffbc78abe5bb3d33bf3003c0356fb63a6ecf29bac8111a00c4f365b1ffe2a1b486020604051428152a2005b60405162461bcd60e51b815260206004820152602360248201527f4f6e6c792050726f64756374204f776e65722063616e2072656d6f7665206974604482015262656d7360e81b6064820152608490fd5b6110d2915060803d6080116104385761042781836112a5565b50505085610fda565b506020813d60201161110e575b816110f5602093836112a5565b8101031261010c57611109610fa2916112c7565b610f98565b3d91506110e8565b506003548110610f12565b3461010c57602036600319011261010c57602090600435600052600182526040600020548152f35b604090600319011261010c5760043590602435600481101561010c5790565b6004111561117257565b634e487b7160e01b600052602160045260246000fd5b602060408183019282815284518094520192019060005b8181106111ac5750505090565b825184526020938401939092019160010161119f565b80548210156111da5760005260206000200190600090565b634e487b7160e01b600052603260045260246000fd5b156111f757565b60405162461bcd60e51b815260206004820152601b60248201527f4261636b6c6f67206974656d20646f6573206e6f7420657869737400000000006044820152606490fd5b1561124357565b60405162461bcd60e51b815260206004820152601960248201527f4261636b6c6f67206974656d2069732063616e63656c6c6564000000000000006044820152606490fd5b610100810190811067ffffffffffffffff821117610ce357604052565b90601f8019910116810190811067ffffffffffffffff821117610ce357604052565b5190811515820361010c57565b156112db57565b60405162461bcd60e51b815260206004820152602960248201527f4f6e6c79207465616d206d656d626572732063616e20706572666f726d20746860448201526834b99030b1ba34b7b760b91b6064820152608490fd5b919082608091031261010c578151600481101561010c5791602081015191606061135e604084016112c7565b92015190565b8015611371576000190190565b634e487b7160e01b600052601160045260246000fd5b9061139181611168565b815460ff60a81b191660a89190911b60ff60a81b16179055565b156113b257565b60405162461bcd60e51b815260206004820152601960248201527f4461746120686173682063616e6e6f7420626520656d707479000000000000006044820152606490fd5b60001981146113715760010190565b67ffffffffffffffff8111610ce35760051b60200190565b80518210156111da5760209160051b01019056fea2646970667358221220cddee1ec5f848c80f1b20a19b115e0e583f4ffa55e90f963cd00a679dc7c2b4164736f6c634300081c0033",
  "linkReferences": {},
  "deployedLinkReferences": {}
}