{
  "_format": "hh-sol-artifact-1",
  "contractName": "ScrumTeam",
  "sourceName": "contracts/ScrumTeam.sol",
  "abi": [
    {
      "inputs": [],
      "stateMutability": "nonpayable",
      "type": "constructor"
    },
    {
      "anonymous": false,
      "inputs": [
        {
          "indexed": true,
          "internalType": "uint256",
          "name": "teamId",
          "type": "uint256"
        },
        {
          "indexed": false,
          "internalType": "bytes32",
          "name": "oldHash",
          "type": "bytes32"
        },
        {
          "indexed": false,
          "internalType": "bytes32",
          "name": "newHash",
          "type": "bytes32"
        },
        {
          "indexed": false,
          "internalType": "uint256",
          "name": "timestamp",
          "type": "uint256"
        }
      ],
      "name": "DataHashUpdated",
      "type": "event"
    },
    {
      "anonymous": false,
      "inputs": [
        {
          "indexed": true,
          "internalType": "uint256",
          "name": "teamId",
          "type": "uint256"
        },
        {
          "indexed": true,
          "internalType": "address",
          "name": "member",
          "type": "address"
        },
        {
          "indexed": false,
          "internalType": "enum ScrumTeam.Role",
          "name": "role",
          "type": "uint8"
        },
        {
          "indexed": false,
          "internalType": "bytes32",
          "name": "dataHash",
          "type": "bytes32"
        },
        {
          "indexed": false,
          "internalType": "uint256",
          "name": "timestamp",
          "type": "uint256"
        }
      ],
      "name": "MemberAdded",
      "type": "event"
    },
    {
      "anonymous": false,
      "inputs": [
        {
          "indexed": true,
          "internalType": "uint256",
          "name": "teamId",
          "type": "uint256"
        },
        {
          "indexed": true,
          "internalType": "address",
          "name": "member",
          "type": "address"
        },
        {
          "indexed": false,
          "internalType": "uint256",
          "name": "timestamp",
          "type": "uint256"
        }
      ],
      "name": "MemberRemoved",
      "type": "event"
    },
    {
      "anonymous": false,
      "inputs": [
        {
          "indexed": true,
          "internalType": "uint256",
          "name": "teamId",
          "type": "uint256"
        },
        {
          "indexed": true,
          "internalType": "address",
          "name": "member",
          "type": "address"
        },
        {
          "indexed": false,
          "internalType": "enum ScrumTeam.Role",
          "name": "oldRole",
          "type": "uint8"
        },
        {
          "indexed": false,
          "internalType": "enum ScrumTeam.Role",
          "name": "newRole",
          "type": "uint8"
        },
        {
          "indexed": false,
          "internalType": "uint256",
          "name": "timestamp",
          "type": "uint256"
        }
      ],
      "name": "MemberRoleUpdated",
      "type": "event"
    },
    {
      "anonymous": false,
      "inputs": [
        {
          "indexed": true,
          "internalType": "uint256",
          "name": "teamId",
          "type": "uint256"
        },
        {
          "indexed": false,
          "internalType": "uint256",
          "name": "timestamp",
          "type": "uint256"
        }
      ],
      "name": "TeamDeactivated",
      "type": "event"
    },
    {
      "anonymous": false,
      "inputs": [
        {
          "indexed": true,
          "internalType": "uint256",
          "name": "teamId",
          "type": "uint256"
        },
        {
          "indexed": true,
          "internalType": "address",
          "name": "creator",
          "type": "address"
        },
        {
          "indexed": false,
          "internalType": "bytes32",
          "name": "dataHash",
          "type": "bytes32"
        },
        {
          "indexed": false,
          "internalType": "uint256",
          "name": "timestamp",
          "type": "uint256"
        }
      ],
      "name": "TeamRegistered",
      "type": "event"
    },
    {
      "inputs": [
        {
          "internalType": "uint256",
          "name": "_teamId",
          "type": "uint256"
        },
        {
          "internalType": "address",
          "name": "_member",
          "type": "address"
        },
        {
          "internalType": "enum ScrumTeam.Role",
          "name": "_role",
          "type": "uint8"
        },
        {
          "internalType": "bytes32",
          "name": "_dataHash",
          "type": "bytes32"
        }
      ],
      "name": "addMember",
      "outputs": [],
      "stateMutability": "nonpayable",
      "type": "function"
    },
    {
      "inputs": [
        {
          "internalType": "uint256",
          "name": "_teamId",
          "type": "uint256"
        }
      ],
      "name": "deactivateTeam",
      "outputs": [],
      "stateMutability": "nonpayable",
      "type": "function"
    },
    {
      "inputs": [
        {
          "internalType": "uint256",
          "name": "_teamId",
          "type": "uint256"
        },
        {
          "internalType": "address",
          "name": "_member",
          "type": "address"
        }
      ],
      "name": "getMemberInfo",
      "outputs": [
        {
          "internalType": "enum ScrumTeam.Role",
          "name": "role",
          "type": "uint8"
        },
        {
          "internalType": "uint256",
          "name": "joinedAt",
          "type": "uint256"
        },
        {
          "internalType": "bool",
          "name": "isActive",
          "type": "bool"
        },
        {
          "internalType": "bytes32",
          "name": "dataHash",
          "type": "bytes32"
        }
      ],
      "stateMutability": "view",
      "type": "function"
    },
    {
      "inputs": [
        {
          "internalType": "uint256",
          "name": "_teamId",
          "type": "uint256"
        }
      ],
      "name": "getTeamInfo",
      "outputs": [
        {
          "internalType": "address",
          "name": "creator",
          "type": "address"
        },
        {
          "internalType": "uint256",
          "name": "createdAt",
          "type": "uint256"
        },
        {
          "internalType": "bool",
          "name": "isActive",
          "type": "bool"
        },
        {
          "internalType": "bytes32",
          "name": "dataHash",
          "type": "bytes32"
        },
        {
          "internalType": "uint256",
          "name": "memberCount",
          "type": "uint256"
        }
      ],
      "stateMutability": "view",
      "type": "function"
    },
    {
      "inputs": [
        {
          "internalType": "uint256",
          "name": "_teamId",
          "type": "uint256"
        }
      ],
      "name": "getTeamMembers",
      "outputs": [
        {
          "internalType": "address[]",
          "name": "",
          "type": "address[]"
        }
      ],
      "stateMutability": "view",
      "type": "function"
    },
    {
      "inputs": [
        {
          "internalType": "address",
          "name": "_user",
          "type": "address"
        }
      ],
      "name": "getUserTeam",
      "outputs": [
        {
          "internalType": "uint256",
          "name": "",
          "type": "uint256"
        }
      ],
      "stateMutability": "view",
      "type": "function"
    },
    {
      "inputs": [
        {
          "internalType": "uint256",
          "name": "_teamId",
          "type": "uint256"
        },
        {
          "internalType": "address",
          "name": "_member",
          "type": "address"
        }
      ],
      "name": "isMember",
      "outputs": [
        {
          "internalType": "bool",
          "name": "",
          "type": "bool"
        }
      ],
      "stateMutability": "view",
      "type": "function"
    },
    {
      "inputs": [
        {
          "internalType": "uint256",
          "name": "_teamId",
          "type": "uint256"
        }
      ],
      "name": "isTeamActive",
      "outputs": [
        {
          "internalType": "bool",
          "name": "",
          "type": "bool"
        }
      ],
      "stateMutability": "view",
      "type": "function"
    },
    {
      "inputs": [
        {
          "internalType": "uint256",
          "name": "",
          "type": "uint256"
        },
        {
          "internalType": "address",
          "name": "",
          "type": "address"
        }
      ],
      "name": "memberRecords",
      "outputs": [
        {
          "internalType": "uint256",
          "name": "teamId",
          "type": "uint256"
        },
        {
          "internalType": "address",
          "name": "memberAddress",
          "type": "address"
        },
        {
          "internalType": "enum ScrumTeam.Role",
          "name": "role",
          "type": "uint8"
        },
        {
          "internalType": "uint256",
          "name": "joinedAt",
          "type": "uint256"
        },
        {
          "internalType": "bool",
          "name": "isActive",
          "type": "bool"
        },
        {
          "internalType": "bytes32",
          "name": "dataHash",
          "type": "bytes32"
        }
      ],
      "stateMutability": "view",
      "type": "function"
    },
    {
      "inputs": [],
      "name": "nextTeamId",
      "outputs": [
        {
          "internalType": "uint256",
          "name": "",
          "type": "uint256"
        }
      ],
      "stateMutability": "view",
      "type": "function"
    },
    {
      "inputs": [
        {
          "internalType": "bytes32",
          "name": "_dataHash",
          "type": "bytes32"
        }
      ],
      "name": "registerTeam",
      "outputs": [
        {
          "internalType": "uint256",
          "name": "",
          "type": "uint256"
        }
      ],
      "stateMutability": "nonpayable",
      "type": "function"
    },
    {
      "inputs": [
        {
          "internalType": "uint256",
          "name": "_teamId",
          "type": "uint256"
        },
        {
          "internalType": "address",
          "name": "_member",
          "type": "address"
        }
      ],
      "name": "removeMember",
      "outputs": [],
      "stateMutability": "nonpayable",
      "type": "function"
    },
    {
      "inputs": [
        {
          "internalType": "uint256",
          "name": "",
          "type": "uint256"
        },
        {
          "internalType": "uint256",
          "name": "",
          "type": "uint256"
        }
      ],
      "name": "teamMembers",
      "outputs": [
        {
          "internalType": "address",
          "name": "",
          "type": "address"
        }
      ],
      "stateMutability": "view",
      "type": "function"
    },
    {
      "inputs": [
        {
          "internalType": "uint256",
          "name": "",
          "type": "uint256"
        }
      ],
      "name": "teams",
      "outputs": [
        {
          "internalType": "uint256",
          "name": "teamId",
          "type": "uint256"
        },
        {
          "internalType": "address",
          "name": "creator",
          "type": "address"
        },
        {
          "internalType": "uint256",
          "name": "createdAt",
          "type": "uint256"
        },
        {
          "internalType": "bool",
          "name": "isActive",
          "type": "bool"
        },
        {
          "internalType": "bytes32",
          "name": "dataHash",
          "type": "bytes32"
        }
      ],
      "stateMutability": "view",
      "type": "function"
    },
    {
      "inputs": [
        {
          "internalType": "uint256",
          "name": "_teamId",
          "type": "uint256"
        },
        {
          "internalType": "address",
          "name": "_member",
          "type": "address"
        },
        {
          "internalType": "enum ScrumTeam.Role",
          "name": "_newRole",
          "type": "uint8"
        }
      ],
      "name": "updateMemberRole",
      "outputs": [],
      "stateMutability": "nonpayable",
      "type": "function"
    },
    {
      "inputs": [
        {
          "internalType": "uint256",
          "name": "_teamId",
          "type": "uint256"
        },
        {
          "internalType": "bytes32",
          "name": "_newDataHash",
          "type": "bytes32"
        }
      ],
      "name": "updateTeamDataHash",
      "outputs": [],
      "stateMutability": "nonpayable",
      "type": "function"
    },
    {
      "inputs": [
        {
          "internalType": "address",
          "name": "",
          "type": "address"
        }
      ],
      "name": "userTeam",
      "outputs": [
        {
          "internalType": "uint256",
          "name": "",
          "type": "uint256"
        }
      ],
      "stateMutability": "view",
      "type": "function"
    }
  ],
  "bytecode": "0x60808060405234601a57600160045561171290816100208239f35b600080fdfe6080604052600436101561001257600080fd5b60003560e01c80625af60b146110f057806308031c5114610f11578063112d5c65146100d65780631e67939e14610db85780633019a4d114610b405780633ed2b77a14610adc57806351cf8c92146109b357806357c9817f146109615780635a1f511c1461072e57806368599d0c146107105780636be7658b146104225780637d9e10f5146103cc5780638aca9278146103395780638d758f9014610241578063969215ba1461016c578063ef43aaeb146101155763faeda7e5146100d657600080fd5b34610110576020366003190112610110576001600160a01b036100f761138f565b1660005260026020526020604060002054604051908152f35b600080fd5b346101105760203660031901126101105760043580151580610161575b80610145575b6020906040519015158152f35b506000526000602052602060ff60036040600020015416610138565b506004548110610132565b346101105760203660031901126101105760a060043580151580610236575b610194906113e0565b8060005260006020526101b160ff60036040600020015416611422565b80600052600060205260406000206080604051916101ce836115bc565b80548352600180861b0360018201541693846020850152600282015493846040820152600460ff600385015416151593846060840152015493849101526000526001602052604060002054926040519485526020850152604084015260608301526080820152f35b50600454811061018b565b34610110576020366003190112610110576004358015158061032e575b610267906113e0565b80600052600060205261028460ff60036040600020015416611422565b600052600160205260406000206040518060208354918281520190819360005260206000209060005b81811061030f57505050816102c39103826115d8565b6040519182916020830190602084525180915260408301919060005b8181106102ed575050500390f35b82516001600160a01b03168452859450602093840193909201916001016102df565b82546001600160a01b03168452602090930192600192830192016102ad565b50600454811061025e565b346101105760403660031901126101105760c06040610356611379565b60043560005260036020528160002060009160018060a01b031682526020522080549060018101549060028101546103b9600460ff6003850154169301549360405195865260018060a01b038116602087015260ff604087019160a01c166113a5565b60608401521515608083015260a0820152f35b346101105760403660031901126101105760206104186103ea611379565b600435600052600360205260406000209060018060a01b031660005260205260ff6003604060002001541690565b6040519015158152f35b346101105760403660031901126101105760043561043e611379565b9080151580610705575b610451906113e0565b80600052600060205261046e60ff60036040600020015416611422565b6000818152602081815260408083206001908101546003845282852033865290935292209182015460a01c60ff1691906001600160a01b031660048310156106ef5760016104cf931491826106e0575b5033149081156106d8575b50611463565b6000818152602081905260409020600101546001600160a01b0383811693911683146106935761052861052d9183600052600360205260406000209060018060a01b031660005260205260ff6003604060002001541690565b61151a565b806000526003602052604060002082600052602052600360406000200160ff19815416905580600052600160205260406000209060005b82548082101561068a578461057983866113b2565b905460039190911b1c6001600160a01b0316146105995750600101610564565b919291600019810191908211610674576105d26105b96105f693856113b2565b905460039190911b1c6001600160a01b031691846113b2565b81546001600160a01b0393841660039290921b91821b9390911b1916919091179055565b8054801561065e57600019019061060d82826113b2565b81549060018060a01b039060031b1b19169055555b816000526002602052600060408120557fd3242e53f33ed7491bc4c949af52a8af7176b48000fbc9a4d7248219633976176020604051428152a3005b634e487b7160e01b600052603160045260246000fd5b634e487b7160e01b600052601160045260246000fd5b50509050610622565b60405162461bcd60e51b815260206004820152601a60248201527f43616e6e6f742072656d6f7665207465616d2063726561746f720000000000006044820152606490fd5b9050846104c9565b6003015460ff169150856104be565b634e487b7160e01b600052602160045260246000fd5b506004548110610448565b34610110576000366003190112610110576020600454604051908152f35b346101105760203660031901126101105760043561074d81151561161a565b33600052600260205261076560406000205415611666565b600454604051610774816115bc565b8181526004602082013381526107f860408401428152606085019060018252608086019388855287600052600060205260406000209651875560018060a01b03905116600187019060018060a01b03166bffffffffffffffffffffffff60a01b825416179055516002860155511515600385019060ff801983541691151516179055565b519101556040516108088161158a565b81815233602080830182815260026040808601918252426060870190815260016080880181815260a089018b815260008b815260038952858120998152989097529290962096518755925194860180546001600160a01b0319166001600160a01b039690961695909517855590519160048310156106ef5761088f6108ad93600496611566565b516002860155511515600385019060ff801983541691151516179055565b519101558060005260016020526108c83360406000206116b2565b33600052600260205280604060002055600454916000198314610674576001602093016004556040518181524284820152827f610c71c5c6108332c891f2835596a1f89892f3e62de1418bad67bc239dadf9e160403393a3604051906002825283820152426040820152817f83f7c71804f06feffbb48f7c3163c13a0077e775260e81af1723f08ffa058a2d60603393a3604051908152f35b34610110576040366003190112610110576024356004356000526001602052604060002080548210156101105760209161099a916113b2565b905460405160039290921b1c6001600160a01b03168152f35b346101105760403660031901126101105760043560243581151580610ad1575b6109dc906113e0565b8160005260006020526109f960ff60036040600020015416611422565b6000828152602081815260408083206001908101546003845282852033865290935292209182015491926001600160a01b03919091169160a01c60ff1660048110156106ef577f0eb7be91ebcdba0611a1975916846c127b63c655bea6fb4458b1dd432b2984e0936060936001610a8293149182610ac2575b503314908115610aba5750611463565b610a8d81151561161a565b600084815260208181526040918290206004018054908490558251908152908101929092524290820152a2005b9050866104c9565b6003015460ff16915087610a72565b5060045482106109d3565b3461011057602036600319011261011057600435600052600060205260a06040600020805490600180841b03600182015416906002810154600460ff6003840154169201549260405194855260208501526040840152151560608301526080820152f35b3461011057608036600319011261011057600435610b5c611379565b906044359160048310156101105760643582151580610dad575b610b7f906113e0565b826000526000602052610b9c60ff60036040600020015416611422565b6000838152602081815260408083206001908101546003845282852033865290935292209182015460a01c60ff1691906001600160a01b031660048310156106ef576001610bfb93149182610ac257503314908115610aba5750611463565b6001600160a01b03821693610c118515156114d5565b610c1c82151561161a565b846000526002602052610c3460406000205415611666565b60008481526003602081815260408084206001600160a01b0388168552909152909120015460ff16610d685760405191610c6d8361158a565b84835260208301928684526040810194610c87848761160e565b426060830190815260016080840181815260a0850186815260008b81526003602090815260408083208f8452909152902095518655975191850180546001600160a01b0319166001600160a01b03939093169290921782559751979691939160048910156106ef57610d26606098610d3d9661088f7f83f7c71804f06feffbb48f7c3163c13a0077e775260e81af1723f08ffa058a2d9c600496611566565b5191015586600052600160205260406000206116b2565b85600052600260205284604060002055610d5a60405180936113a5565b6020820152426040820152a3005b60405162461bcd60e51b815260206004820152601d60248201527f5573657220697320616c72656164792061207465616d206d656d6265720000006044820152606490fd5b506004548310610b76565b34610110576040366003190112610110576040600435610dd6611379565b9080151580610f06575b610de9906113e0565b806000526000602052610e0560ff600385600020015416611422565b60005260036020528160002060009160018060a01b0316825260205220604051610e2e8161158a565b8154815260018201546001600160a01b0381166020830190815292906040830190610e5f9060a01c60ff168261160e565b600282015460608401908152600383015460ff1615156080850190815260049093015460a090940193845293516001600160a01b031615610ece57519160048310156106ef576080935191511515905191610ebd60405180956113a5565b602084015260408301526060820152f35b60405162461bcd60e51b815260206004820152601060248201526f13595b58995c881b9bdd08199bdd5b9960821b6044820152606490fd5b506004548110610de0565b3461011057602036600319011261011057600435801515806110e5575b610f37906113e0565b806000526000602052610f5460ff60036040600020015416611422565b6000818152602081815260408083206001908101546003845282852033865290935292209182015460a01c60ff1691906001600160a01b031660048310156106ef576001610fb4931491826110d6575b5033149081156110ce5750611463565b806000526000602052600360406000200160ff19815416905580600052600160205260406000206040518082602082945493848152019060005260206000209260005b8181106110ac57505061100c925003826115d8565b60005b815181101561107f576001908360005260036020526003604080600020848060a01b0361103c85886115fa565b511690600091868060a01b03168252602052200160ff198154169055818060a01b0361106882856115fa565b51166000526002602052600060408120550161100f565b827f92e96b2169fded0ca92ea9eb391443629d67455e502f94a17f8bd6730a4e6c886020604051428152a2005b84546001600160a01b0316835260019485019486945060209093019201610ff7565b9050836104c9565b6003015460ff16915084610fa4565b506004548110610f2e565b346101105760603660031901126101105760043561110c611379565b9060443560048110159081610110578215158061136e575b61112d906113e0565b82600052600060205261114a60ff60036040600020015416611422565b6000838152602081815260408083206001908101546003845282852033865290935292209182015460a01c60ff1691906001600160a01b031660048310156106ef5760016111a993149182610ac257503314908115610aba5750611463565b6001600160a01b038416936111f390610528906111c78715156114d5565b85600052600360205260406000209060018060a01b031660005260205260ff6003604060002001541690565b6000838152602081905260409020600101546001600160a01b03168414801590611360575b156113095782600052600360205260406000208460005260205260ff60016040600020015460a01c16916106ef5760048210156106ef578082146112c4577fe2b9191c7a8e951b0c17c28691f5f3d2d4a23b3138951dfd4a14ff8cfb9a3ecc916112bb6060928560005260036020526040600020876000526020526112a4816001604060002001611566565b6112b160405180946113a5565b60208301906113a5565b426040820152a3005b60405162461bcd60e51b815260206004820152601c60248201527f4d656d62657220616c726561647920686173207468697320726f6c65000000006044820152606490fd5b60405162461bcd60e51b815260206004820152602960248201527f5465616d2063726561746f72206d7573742072656d61696e2061732050726f646044820152683ab1ba1027bbb732b960b91b6064820152608490fd5b506000915060028114611218565b506004548310611124565b602435906001600160a01b038216820361011057565b600435906001600160a01b038216820361011057565b9060048210156106ef5752565b80548210156113ca5760005260206000200190600090565b634e487b7160e01b600052603260045260246000fd5b156113e757565b60405162461bcd60e51b81526020600482015260136024820152721519585b48191bd95cc81b9bdd08195e1a5cdd606a1b6044820152606490fd5b1561142957565b60405162461bcd60e51b81526020600482015260126024820152715465616d206973206e6f742061637469766560701b6044820152606490fd5b1561146a57565b60405162461bcd60e51b815260206004820152603960248201527f4f6e6c79207465616d2063726561746f72206f7220536372756d204d6173746560448201527f722063616e20706572666f726d207468697320616374696f6e000000000000006064820152608490fd5b156114dc57565b60405162461bcd60e51b8152602060048201526016602482015275496e76616c6964206d656d626572206164647265737360501b6044820152606490fd5b1561152157565b60405162461bcd60e51b815260206004820152601960248201527f55736572206973206e6f742061207465616d206d656d626572000000000000006044820152606490fd5b9060048110156106ef57815460ff60a01b191660a09190911b60ff60a01b16179055565b60c0810190811067ffffffffffffffff8211176115a657604052565b634e487b7160e01b600052604160045260246000fd5b60a0810190811067ffffffffffffffff8211176115a657604052565b90601f8019910116810190811067ffffffffffffffff8211176115a657604052565b80518210156113ca5760209160051b010190565b60048210156106ef5752565b1561162157565b60405162461bcd60e51b815260206004820152601960248201527f4461746120686173682063616e6e6f7420626520656d707479000000000000006044820152606490fd5b1561166d57565b60405162461bcd60e51b815260206004820152601e60248201527f5573657220616c72656164792062656c6f6e677320746f2061207465616d00006044820152606490fd5b90815491680100000000000000008310156115a657826105d29160016116da950181556113b2565b56fea264697066735822122011e81c4efb512579747446389a21a5fd8dd339bb1e68c9fd24510957aba096e464736f6c634300081c0033",
  "linkReferences": {},
  "deployedLinkReferences": {}
}