{
  "_format": "hh-sol-artifact-1",
  "contractName": "SprintManagement",
  "sourceName": "contracts/SprintManagement.sol",
  "abi": [
    {
      "inputs": [
        {
          "internalType": "address",
          "name": "_scrumTeamContract",
          "type": "address"
        }
      ],
      "stateMutability": "nonpayable",
      "type": "constructor"
    },
    {
      "anonymous": false,
      "inputs": [
        {
          "indexed": true,
          "internalType": "uint256",
          "name": "sprintId",
          "type": "uint256"
        },
        {
          "indexed": false,
          "internalType": "bytes32",
          "name": "oldHash",
          "type": "bytes32"
        },
        {
          "indexed": false,
          "internalType": "bytes32",
          "name": "newHash",
          "type": "bytes32"
        },
        {
          "indexed": false,
          "internalType": "uint256",
          "name": "timestamp",
          "type": "uint256"
        }
      ],
      "name": "SprintDataUpdated",
      "type": "event"
    },
    {
      "anonymous": false,
      "inputs": [
        {
          "indexed": true,
          "internalType": "uint256",
          "name": "sprintId",
          "type": "uint256"
        },
        {
          "indexed": true,
          "internalType": "uint256",
          "name": "teamId",
          "type": "uint256"
        },
        {
          "indexed": true,
          "internalType": "address",
          "name": "createdBy",
          "type": "address"
        },
        {
          "indexed": false,
          "internalType": "uint256",
          "name": "startDate",
          "type": "uint256"
        },
        {
          "indexed": false,
          "internalType": "uint256",
          "name": "endDate",
          "type": "uint256"
        },
        {
          "indexed": false,
          "internalType": "bytes32",
          "name": "dataHash",
          "type": "bytes32"
        },
        {
          "indexed": false,
          "internalType": "uint256",
          "name": "timestamp",
          "type": "uint256"
        }
      ],
      "name": "SprintRegistered",
      "type": "event"
    },
    {
      "anonymous": false,
      "inputs": [
        {
          "indexed": true,
          "internalType": "uint256",
          "name": "sprintId",
          "type": "uint256"
        },
        {
          "indexed": false,
          "internalType": "uint256",
          "name": "timestamp",
          "type": "uint256"
        }
      ],
      "name": "SprintRemoved",
      "type": "event"
    },
    {
      "anonymous": false,
      "inputs": [
        {
          "indexed": true,
          "internalType": "uint256",
          "name": "sprintId",
          "type": "uint256"
        },
        {
          "indexed": false,
          "internalType": "enum SprintManagement.Status",
          "name": "oldStatus",
          "type": "uint8"
        },
        {
          "indexed": false,
          "internalType": "enum SprintManagement.Status",
          "name": "newStatus",
          "type": "uint8"
        },
        {
          "indexed": false,
          "internalType": "address",
          "name": "changedBy",
          "type": "address"
        },
        {
          "indexed": false,
          "internalType": "uint256",
          "name": "timestamp",
          "type": "uint256"
        }
      ],
      "name": "SprintStatusChanged",
      "type": "event"
    },
    {
      "inputs": [
        {
          "internalType": "uint256",
          "name": "_teamId",
          "type": "uint256"
        }
      ],
      "name": "getCurrentActiveSprint",
      "outputs": [
        {
          "internalType": "uint256",
          "name": "",
          "type": "uint256"
        }
      ],
      "stateMutability": "view",
      "type": "function"
    },
    {
      "inputs": [
        {
          "internalType": "uint256",
          "name": "_sprintId",
          "type": "uint256"
        }
      ],
      "name": "getSprintInfo",
      "outputs": [
        {
          "internalType": "uint256",
          "name": "teamId",
          "type": "uint256"
        },
        {
          "internalType": "address",
          "name": "createdBy",
          "type": "address"
        },
        {
          "internalType": "enum SprintManagement.Status",
          "name": "status",
          "type": "uint8"
        },
        {
          "internalType": "uint256",
          "name": "startDate",
          "type": "uint256"
        },
        {
          "internalType": "uint256",
          "name": "endDate",
          "type": "uint256"
        },
        {
          "internalType": "uint256",
          "name": "createdAt",
          "type": "uint256"
        },
        {
          "internalType": "uint256",
          "name": "updatedAt",
          "type": "uint256"
        },
        {
          "internalType": "bytes32",
          "name": "dataHash",
          "type": "bytes32"
        }
      ],
      "stateMutability": "view",
      "type": "function"
    },
    {
      "inputs": [
        {
          "internalType": "uint256",
          "name": "_teamId",
          "type": "uint256"
        },
        {
          "internalType": "enum SprintManagement.Status",
          "name": "_status",
          "type": "uint8"
        }
      ],
      "name": "getSprintsByStatus",
      "outputs": [
        {
          "internalType": "uint256[]",
          "name": "",
          "type": "uint256[]"
        }
      ],
      "stateMutability": "view",
      "type": "function"
    },
    {
      "inputs": [
        {
          "internalType": "uint256",
          "name": "_teamId",
          "type": "uint256"
        }
      ],
      "name": "getTeamSprintCount",
      "outputs": [
        {
          "internalType": "uint256",
          "name": "",
          "type": "uint256"
        }
      ],
      "stateMutability": "view",
      "type": "function"
    },
    {
      "inputs": [
        {
          "internalType": "uint256",
          "name": "_teamId",
          "type": "uint256"
        }
      ],
      "name": "getTeamSprints",
      "outputs": [
        {
          "internalType": "uint256[]",
          "name": "",
          "type": "uint256[]"
        }
      ],
      "stateMutability": "view",
      "type": "function"
    },
    {
      "inputs": [
        {
          "internalType": "uint256",
          "name": "_teamId",
          "type": "uint256"
        }
      ],
      "name": "getTeamStatusCounts",
      "outputs": [
        {
          "internalType": "uint256",
          "name": "planningCount",
          "type": "uint256"
        },
        {
          "internalType": "uint256",
          "name": "activeCount",
          "type": "uint256"
        },
        {
          "internalType": "uint256",
          "name": "completedCount",
          "type": "uint256"
        },
        {
          "internalType": "uint256",
          "name": "cancelledCount",
          "type": "uint256"
        }
      ],
      "stateMutability": "view",
      "type": "function"
    },
    {
      "inputs": [
        {
          "internalType": "uint256",
          "name": "_sprintId",
          "type": "uint256"
        }
      ],
      "name": "isSprintActive",
      "outputs": [
        {
          "internalType": "bool",
          "name": "",
          "type": "bool"
        }
      ],
      "stateMutability": "view",
      "type": "function"
    },
    {
      "inputs": [],
      "name": "nextSprintId",
      "outputs": [
        {
          "internalType": "uint256",
          "name": "",
          "type": "uint256"
        }
      ],
      "stateMutability": "view",
      "type": "function"
    },
    {
      "inputs": [
        {
          "internalType": "uint256",
          "name": "_teamId",
          "type": "uint256"
        },
        {
          "internalType": "uint256",
          "name": "_startDate",
          "type": "uint256"
        },
        {
          "internalType": "uint256",
          "name": "_endDate",
          "type": "uint256"
        },
        {
          "internalType": "bytes32",
          "name": "_dataHash",
          "type": "bytes32"
        }
      ],
      "name": "registerSprint",
      "outputs": [
        {
          "internalType": "uint256",
          "name": "",
          "type": "uint256"
        }
      ],
      "stateMutability": "nonpayable",
      "type": "function"
    },
    {
      "inputs": [
        {
          "internalType": "uint256",
          "name": "_sprintId",
          "type": "uint256"
        }
      ],
      "name": "removeSprint",
      "outputs": [],
      "stateMutability": "nonpayable",
      "type": "function"
    },
    {
      "inputs": [],
      "name": "scrumTeamContract",
      "outputs": [
        {
          "internalType": "contract ScrumTeam",
          "name": "",
          "type": "address"
        }
      ],
      "stateMutability": "view",
      "type": "function"
    },
    {
      "inputs": [
        {
          "internalType": "uint256",
          "name": "",
          "type": "uint256"
        }
      ],
      "name": "sprints",
      "outputs": [
        {
          "internalType": "uint256",
          "name": "sprintId",
          "type": "uint256"
        },
        {
          "internalType": "uint256",
          "name": "teamId",
          "type": "uint256"
        },
        {
          "internalType": "address",
          "name": "createdBy",
          "type": "address"
        },
        {
          "internalType": "enum SprintManagement.Status",
          "name": "status",
          "type": "uint8"
        },
        {
          "internalType": "uint256",
          "name": "startDate",
          "type": "uint256"
        },
        {
          "internalType": "uint256",
          "name": "endDate",
          "type": "uint256"
        },
        {
          "internalType": "uint256",
          "name": "createdAt",
          "type": "uint256"
        },
        {
          "internalType": "uint256",
          "name": "updatedAt",
          "type": "uint256"
        },
        {
          "internalType": "bytes32",
          "name": "dataHash",
          "type": "bytes32"
        }
      ],
      "stateMutability": "view",
      "type": "function"
    },
    {
      "inputs": [
        {
          "internalType": "uint256",
          "name": "",
          "type": "uint256"
        },
        {
          "internalType": "enum SprintManagement.Status",
          "name": "",
          "type": "uint8"
        }
      ],
      "name": "statusCount",
      "outputs": [
        {
          "internalType": "uint256",
          "name": "",
          "type": "uint256"
        }
      ],
      "stateMutability": "view",
      "type": "function"
    },
    {
      "inputs": [
        {
          "internalType": "uint256",
          "name": "",
          "type": "uint256"
        },
        {
          "internalType": "uint256",
          "name": "",
          "type": "uint256"
        }
      ],
      "name": "teamSprints",
      "outputs": [
        {
          "internalType": "uint256",
          "name": "",
          "type": "uint256"
        }
      ],
      "stateMutability": "view",
      "type": "function"
    },
    {
      "inputs": [
        {
          "internalType": "uint256",
          "name": "_sprintId",
          "type": "uint256"
        },
        {
          "internalType": "bytes32",
          "name": "_newDataHash",
          "type": "bytes32"
        }
      ],
      "name": "updateSprintDataHash",
      "outputs": [],
      "stateMutability": "nonpayable",
      "type": "function"
    },
    {
      "inputs": [
        {
          "internalType": "uint256",
          "name": "_sprintId",
          "type": "uint256"
        },
        {
          "internalType": "enum SprintManagement.Status",
          "name": "_newStatus",
          "type": "uint8"
        }
      ],
      "name": "updateSprintStatus",
      "outputs": [],
      "stateMutability": "nonpayable",
      "type": "function"
    }
  ],
  "bytecode": "0x608034607557601f6112be38819003918201601f19168301916001600160401b03831184841017607a57808492602094604052833981010312607557516001600160a01b03811690819003607557600480546001600160a01b031916919091179055600160035560405161122d90816100918239f35b600080fd5b634e487b7160e01b600052604160045260246000fdfe608080604052600436101561001357600080fd5b60003560e01c908162e0a89e14610e29575080631372b83214610dfb5780632e0cc60914610cc35780632fba8efe14610b9e57806348b012b714610b08578063574714d61461096357806357ca22881461094557806362f7c1f214610822578063775131bd146107f957806385dbd058146105915780638e9c63641461056b5780638f6a5ab014610506578063acd8f3af1461048d578063c14c796e14610461578063ccea04fa1461011b5763d9ce270e146100ce57600080fd5b34610116576040366003190112610116576024356004356000526001602052604060002080548210156101165760209161010791610f0f565b90549060031b1c604051908152f35b600080fd5b346101165760803660031901126101165760048054604051637d9e10f560e01b8152823592810183905233602480830191909152604480359460643594923593909290916001600160a01b0390911690602090839081845afa90811561043857610192602092602494600091610444575b5061106b565b61019d8615156110fa565b6040519283809263ef43aaeb60e01b82528660048301525afa90811561043857600091610409575b50156103cf578382101561037f57600354926040516101e381610f3d565b84815260208101838152604082019033825260608301600081526080840187815260a085018a815260c086019142835260e08701934285526101008801958987528c6000526000602052604060002098518955516001890155600288019660018060a01b039051166bffffffffffffffffffffffff60a01b8854161787555195600487101561036957600796610278916110d6565b516003870155516004860155516005850155516006840155519101558160005260016020526040600020948554956801000000000000000087101561035357866102c9916001602099018155610f0f565b81549060031b9087821b91600019901b191617905582600052600286526040806000206000908180528852206102ff8154610fa8565b905561030c600354610fa8565b600355604051938452858401526040830152426060830152827f2af350fceb4b73dd3d5a4b894b7c2c32cabca17c50c46d5e68192adf920e6e2960803394a4604051908152f35b634e487b7160e01b600052604160045260246000fd5b634e487b7160e01b600052602160045260246000fd5b60405162461bcd60e51b815260206004820152602260248201527f53746172742064617465206d757374206265206265666f726520656e64206461604482015261746560f01b6064820152608490fd5b60405162461bcd60e51b81526020600482015260126024820152715465616d206973206e6f742061637469766560701b6044820152606490fd5b61042b915060203d602011610431575b6104238183610f5a565b810190611053565b856101c5565b503d610419565b6040513d6000823e3d90fd5b61045b9150843d8611610431576104238183610f5a565b8961018c565b346101165760203660031901126101165760043560005260016020526020604060002054604051908152f35b34610116576020366003190112610116576004356000526001602052604060002060405190816020825491828152019160005260206000209060005b8181106104f0576104ec856104e081870382610f5a565b60405191829182610ec8565b0390f35b82548452602090930192600192830192016104c9565b346101165760203660031901126101165760043560009081526002602081815260408084208480528252808420546001855281852054938552818520546003865294829020548251918252928101939093528201929092526060810191909152608090f35b34610116576020366003190112610116576020610589600435611146565b604051908152f35b346101165761059f36610e91565b90801515806107ee575b6105b290610fcd565b80600052600060205260ff60026040600020015460a01c1660048110156103695760036105e0911415611011565b60008181526020818152604091829020600181018054600480549551637d9e10f560e01b815290810182905233602482015292969194909391929190829060449082906001600160a01b03165afa801561043857610645916000916107cf575061106b565b6002850160ff815460a01c169160048110156103695760048310156103695780831461077e5760009660038214801590610776575b1561071f576106f28261070f947fdb31433a8c78c2d8381474487a3543232ddc3043579d6482db2e35dd2af337b7986106c08860408e60809c8152600260205220610eb0565b6106ca81546110c9565b9055548b5260026020526106e18260408d20610eb0565b6106eb8154610fa8565b90556110d6565b6006429101556107056040518094610f02565b6020830190610f02565b336040820152426060820152a280f35b60405162461bcd60e51b815260206004820152602960248201527f43616e206f6e6c792063616e63656c20737072696e747320696e20706c616e6e604482015268696e6720706861736560b81b6064820152608490fd5b50831561067a565b60405162461bcd60e51b815260206004820152602360248201527f53746174757320697320616c72656164792073657420746f20746869732076616044820152626c756560e81b6064820152608490fd5b6107e8915060203d602011610431576104238183610f5a565b8761018c565b5060035481106105a9565b34610116576000366003190112610116576004546040516001600160a01b039091168152602090f35b34610116576040366003190112610116576004356024358115158061093a575b61084b90610fcd565b81600052600060205260ff60026040600020015460a01c169060048210156103695761087d60036108d6931415611011565b6108888115156110fa565b600083815260208181526040918290206001810154600480549451637d9e10f560e01b81529081019190915233602482015294909285916001600160a01b0390911690829081906044820190565b03915afa918215610438576109166060937fa8ebaecb5dbfd6fdb7e2f2d25a30f8738f94890b86dcc48d7f8ff50ea531ac8f956000916107cf575061106b565b600782019181835493556006429101556040519182526020820152426040820152a2005b506003548210610842565b34610116576000366003190112610116576020600354604051908152f35b346101165760203660031901126101165760043580151580610afd575b61098990610fcd565b80600052600060205260ff60026040600020015460a01c1660048110156103695760036109b7911415611011565b600081815260208181526040918290206001810154600480549451637d9e10f560e01b81529081018290523360248201529193909290829060449082906001600160a01b03165afa801561043857610a1691600091610ade575061106b565b600282019060ff825460a01c1660048110156103695760018114610a9957610a4a9160005260026020526040600020610eb0565b610a5481546110c9565b9055600360a01b60ff60a01b198254161790556006429101557f860d6298a02e97958b4e139431dcb94d38c3060865531a93382397f6b8706a936020604051428152a2005b60405162461bcd60e51b815260206004820152601c60248201527f43616e6e6f742064656c6574652061637469766520737072696e7473000000006044820152606490fd5b610af7915060203d602011610431576104238183610f5a565b8561018c565b506003548110610980565b34610116576020366003190112610116576004356000526000602052610120604060002080549060018101549060028101546003820154600483015490610b826005850154936007600687015496015496604051988952602089015260018060a01b038116604089015260ff606089019160a01c16610f02565b608086015260a085015260c084015260e0830152610100820152f35b346101165760203660031901126101165760043580151580610cb8575b610bc490610fcd565b60005260006020526040600020604051610bdd81610f3d565b8154815260018201546020820190815260028301546001600160a01b03811660408401908152919391926060810192909160a01c60ff16600481101561036957835260038101549460808301958652600482015460a0840190815260058301549160c08501928352610100600760068601549560e0880196875201549501948552519560018060a01b0390511694519660048810156103695761010097610c9d915192519351945195519660405198895260208901526040880190610f02565b6060860152608085015260a084015260c083015260e0820152f35b506003548110610bbb565b3461011657610cd136610e91565b908060005260016020526040600020906040518083602082955493848152019060005260206000209260005b818110610de2575050610d1292500383610f5a565b6000526002602052610d28826040600020610eb0565b54610d3281610f7c565b90610d406040519283610f5a565b808252610d4f601f1991610f7c565b01366020830137600080916004851015925b8451811015610dd457610d748186610f94565b5160005260006020528360ff60026040600020015460a01c1690610369576004811015610369578614610daa575b600101610d61565b91610dcc600191610dbb8588610f94565b51610dc68286610f94565b52610fa8565b929050610da2565b604051806104ec8482610ec8565b8454835260019485019487945060209093019201610cfd565b34610116576020610e20610e0e36610e91565b90600052600283526040600020610eb0565b54604051908152f35b34610116576020366003190112610116576004359081151580610e86575b80610e57575b6020925015158152f35b5090600052600060205260ff60026040600020015460a01c169060048210156103695760036020921415610e4d565b506003548210610e47565b6040906003190112610116576004359060243560048110156101165790565b90600481101561036957600052602052604060002090565b602060408183019282815284518094520192019060005b818110610eec5750505090565b8251845260209384019390920191600101610edf565b9060048210156103695752565b8054821015610f275760005260206000200190600090565b634e487b7160e01b600052603260045260246000fd5b610120810190811067ffffffffffffffff82111761035357604052565b90601f8019910116810190811067ffffffffffffffff82111761035357604052565b67ffffffffffffffff81116103535760051b60200190565b8051821015610f275760209160051b010190565b6000198114610fb75760010190565b634e487b7160e01b600052601160045260246000fd5b15610fd457565b60405162461bcd60e51b815260206004820152601560248201527414dc1c9a5b9d08191bd95cc81b9bdd08195e1a5cdd605a1b6044820152606490fd5b1561101857565b60405162461bcd60e51b815260206004820152601360248201527214dc1c9a5b9d081a5cc818d85b98d95b1b1959606a1b6044820152606490fd5b90816020910312610116575180151581036101165790565b1561107257565b60405162461bcd60e51b815260206004820152602960248201527f4f6e6c79207465616d206d656d626572732063616e20706572666f726d20746860448201526834b99030b1ba34b7b760b91b6064820152608490fd5b8015610fb7576000190190565b90600481101561036957815460ff60a01b191660a09190911b60ff60a01b16179055565b1561110157565b60405162461bcd60e51b815260206004820152601960248201527f4461746120686173682063616e6e6f7420626520656d707479000000000000006044820152606490fd5b600052600160205260406000206040518082602082945493848152019060005260206000209260005b8181106111de57505061118492500382610f5a565b60005b81518110156111d75761119a8183610f94565b51600052600060205260ff60026040600020015460a01c166004811015610369576001146111ca57600101611187565b6111d391610f94565b5190565b5050600090565b845483526001948501948694506020909301920161116f56fea264697066735822122053f4e6644a28ba9f16582651406fbe065f72fc15676f4a4b56504618ed56eea164736f6c634300081c0033",
  "linkReferences": {},
  "deployedLinkReferences": {}
}