{
  "_format": "hh-sol-artifact-1",
  "contractName": "TaskManagement",
  "sourceName": "contracts/TaskManagement.sol",
  "abi": [
    {
      "inputs": [
        {
          "internalType": "address",
          "name": "_scrumTeamContract",
          "type": "address"
        },
        {
          "internalType": "address",
          "name": "_sprintManagementContract",
          "type": "address"
        }
      ],
      "stateMutability": "nonpayable",
      "type": "constructor"
    },
    {
      "anonymous": false,
      "inputs": [
        {
          "indexed": true,
          "internalType": "uint256",
          "name": "taskId",
          "type": "uint256"
        },
        {
          "indexed": false,
          "internalType": "address",
          "name": "oldAssignee",
          "type": "address"
        },
        {
          "indexed": false,
          "internalType": "address",
          "name": "newAssignee",
          "type": "address"
        },
        {
          "indexed": false,
          "internalType": "address",
          "name": "changedBy",
          "type": "address"
        },
        {
          "indexed": false,
          "internalType": "uint256",
          "name": "timestamp",
          "type": "uint256"
        }
      ],
      "name": "TaskAssigned",
      "type": "event"
    },
    {
      "anonymous": false,
      "inputs": [
        {
          "indexed": true,
          "internalType": "uint256",
          "name": "taskId",
          "type": "uint256"
        },
        {
          "indexed": false,
          "internalType": "bytes32",
          "name": "oldHash",
          "type": "bytes32"
        },
        {
          "indexed": false,
          "internalType": "bytes32",
          "name": "newHash",
          "type": "bytes32"
        },
        {
          "indexed": false,
          "internalType": "uint256",
          "name": "timestamp",
          "type": "uint256"
        }
      ],
      "name": "TaskDataUpdated",
      "type": "event"
    },
    {
      "anonymous": false,
      "inputs": [
        {
          "indexed": true,
          "internalType": "uint256",
          "name": "taskId",
          "type": "uint256"
        },
        {
          "indexed": true,
          "internalType": "uint256",
          "name": "sprintId",
          "type": "uint256"
        },
        {
          "indexed": true,
          "internalType": "uint256",
          "name": "teamId",
          "type": "uint256"
        },
        {
          "indexed": false,
          "internalType": "address",
          "name": "createdBy",
          "type": "address"
        },
        {
          "indexed": false,
          "internalType": "address",
          "name": "assignedTo",
          "type": "address"
        },
        {
          "indexed": false,
          "internalType": "uint256",
          "name": "estimatedHours",
          "type": "uint256"
        },
        {
          "indexed": false,
          "internalType": "bytes32",
          "name": "dataHash",
          "type": "bytes32"
        },
        {
          "indexed": false,
          "internalType": "uint256",
          "name": "timestamp",
          "type": "uint256"
        }
      ],
      "name": "TaskRegistered",
      "type": "event"
    },
    {
      "anonymous": false,
      "inputs": [
        {
          "indexed": true,
          "internalType": "uint256",
          "name": "taskId",
          "type": "uint256"
        },
        {
          "indexed": false,
          "internalType": "uint256",
          "name": "timestamp",
          "type": "uint256"
        }
      ],
      "name": "TaskRemoved",
      "type": "event"
    },
    {
      "anonymous": false,
      "inputs": [
        {
          "indexed": true,
          "internalType": "uint256",
          "name": "taskId",
          "type": "uint256"
        },
        {
          "indexed": false,
          "internalType": "enum TaskManagement.Status",
          "name": "oldStatus",
          "type": "uint8"
        },
        {
          "indexed": false,
          "internalType": "enum TaskManagement.Status",
          "name": "newStatus",
          "type": "uint8"
        },
        {
          "indexed": false,
          "internalType": "address",
          "name": "changedBy",
          "type": "address"
        },
        {
          "indexed": false,
          "internalType": "uint256",
          "name": "timestamp",
          "type": "uint256"
        }
      ],
      "name": "TaskStatusChanged",
      "type": "event"
    },
    {
      "inputs": [
        {
          "internalType": "uint256",
          "name": "_taskId",
          "type": "uint256"
        },
        {
          "internalType": "address",
          "name": "_newAssignee",
          "type": "address"
        }
      ],
      "name": "assignTask",
      "outputs": [],
      "stateMutability": "nonpayable",
      "type": "function"
    },
    {
      "inputs": [
        {
          "internalType": "uint256",
          "name": "_sprintId",
          "type": "uint256"
        }
      ],
      "name": "getSprintStatusCounts",
      "outputs": [
        {
          "internalType": "uint256",
          "name": "todoCount",
          "type": "uint256"
        },
        {
          "internalType": "uint256",
          "name": "inProgressCount",
          "type": "uint256"
        },
        {
          "internalType": "uint256",
          "name": "reviewCount",
          "type": "uint256"
        },
        {
          "internalType": "uint256",
          "name": "doneCount",
          "type": "uint256"
        },
        {
          "internalType": "uint256",
          "name": "removedCount",
          "type": "uint256"
        }
      ],
      "stateMutability": "view",
      "type": "function"
    },
    {
      "inputs": [
        {
          "internalType": "uint256",
          "name": "_sprintId",
          "type": "uint256"
        }
      ],
      "name": "getSprintTaskCount",
      "outputs": [
        {
          "internalType": "uint256",
          "name": "",
          "type": "uint256"
        }
      ],
      "stateMutability": "view",
      "type": "function"
    },
    {
      "inputs": [
        {
          "internalType": "uint256",
          "name": "_sprintId",
          "type": "uint256"
        }
      ],
      "name": "getSprintTasks",
      "outputs": [
        {
          "internalType": "uint256[]",
          "name": "",
          "type": "uint256[]"
        }
      ],
      "stateMutability": "view",
      "type": "function"
    },
    {
      "inputs": [
        {
          "internalType": "uint256",
          "name": "_taskId",
          "type": "uint256"
        }
      ],
      "name": "getTaskInfo",
      "outputs": [
        {
          "internalType": "uint256",
          "name": "sprintId",
          "type": "uint256"
        },
        {
          "internalType": "uint256",
          "name": "teamId",
          "type": "uint256"
        },
        {
          "internalType": "address",
          "name": "createdBy",
          "type": "address"
        },
        {
          "internalType": "address",
          "name": "assignedTo",
          "type": "address"
        },
        {
          "internalType": "enum TaskManagement.Status",
          "name": "status",
          "type": "uint8"
        },
        {
          "internalType": "uint256",
          "name": "estimatedHours",
          "type": "uint256"
        },
        {
          "internalType": "uint256",
          "name": "createdAt",
          "type": "uint256"
        },
        {
          "internalType": "uint256",
          "name": "updatedAt",
          "type": "uint256"
        },
        {
          "internalType": "bytes32",
          "name": "dataHash",
          "type": "bytes32"
        }
      ],
      "stateMutability": "view",
      "type": "function"
    },
    {
      "inputs": [
        {
          "internalType": "uint256",
          "name": "_sprintId",
          "type": "uint256"
        },
        {
          "internalType": "enum TaskManagement.Status",
          "name": "_status",
          "type": "uint8"
        }
      ],
      "name": "getTasksByStatus",
      "outputs": [
        {
          "internalType": "uint256[]",
          "name": "",
          "type": "uint256[]"
        }
      ],
      "stateMutability": "view",
      "type": "function"
    },
    {
      "inputs": [
        {
          "internalType": "uint256",
          "name": "_teamId",
          "type": "uint256"
        }
      ],
      "name": "getTeamStatusCounts",
      "outputs": [
        {
          "internalType": "uint256",
          "name": "todoCount",
          "type": "uint256"
        },
        {
          "internalType": "uint256",
          "name": "inProgressCount",
          "type": "uint256"
        },
        {
          "internalType": "uint256",
          "name": "reviewCount",
          "type": "uint256"
        },
        {
          "internalType": "uint256",
          "name": "doneCount",
          "type": "uint256"
        },
        {
          "internalType": "uint256",
          "name": "removedCount",
          "type": "uint256"
        }
      ],
      "stateMutability": "view",
      "type": "function"
    },
    {
      "inputs": [
        {
          "internalType": "uint256",
          "name": "_teamId",
          "type": "uint256"
        }
      ],
      "name": "getTeamTasks",
      "outputs": [
        {
          "internalType": "uint256[]",
          "name": "",
          "type": "uint256[]"
        }
      ],
      "stateMutability": "view",
      "type": "function"
    },
    {
      "inputs": [
        {
          "internalType": "address",
          "name": "_user",
          "type": "address"
        }
      ],
      "name": "getUserTasks",
      "outputs": [
        {
          "internalType": "uint256[]",
          "name": "",
          "type": "uint256[]"
        }
      ],
      "stateMutability": "view",
      "type": "function"
    },
    {
      "inputs": [
        {
          "internalType": "uint256",
          "name": "_taskId",
          "type": "uint256"
        }
      ],
      "name": "isTaskActive",
      "outputs": [
        {
          "internalType": "bool",
          "name": "",
          "type": "bool"
        }
      ],
      "stateMutability": "view",
      "type": "function"
    },
    {
      "inputs": [],
      "name": "nextTaskId",
      "outputs": [
        {
          "internalType": "uint256",
          "name": "",
          "type": "uint256"
        }
      ],
      "stateMutability": "view",
      "type": "function"
    },
    {
      "inputs": [
        {
          "internalType": "uint256",
          "name": "_sprintId",
          "type": "uint256"
        },
        {
          "internalType": "address",
          "name": "_assignedTo",
          "type": "address"
        },
        {
          "internalType": "uint256",
          "name": "_estimatedHours",
          "type": "uint256"
        },
        {
          "internalType": "bytes32",
          "name": "_dataHash",
          "type": "bytes32"
        }
      ],
      "name": "registerTask",
      "outputs": [
        {
          "internalType": "uint256",
          "name": "",
          "type": "uint256"
        }
      ],
      "stateMutability": "nonpayable",
      "type": "function"
    },
    {
      "inputs": [
        {
          "internalType": "uint256",
          "name": "_taskId",
          "type": "uint256"
        }
      ],
      "name": "removeTask",
      "outputs": [],
      "stateMutability": "nonpayable",
      "type": "function"
    },
    {
      "inputs": [],
      "name": "scrumTeamContract",
      "outputs": [
        {
          "internalType": "contract ScrumTeam",
          "name": "",
          "type": "address"
        }
      ],
      "stateMutability": "view",
      "type": "function"
    },
    {
      "inputs": [],
      "name": "sprintManagementContract",
      "outputs": [
        {
          "internalType": "contract SprintManagement",
          "name": "",
          "type": "address"
        }
      ],
      "stateMutability": "view",
      "type": "function"
    },
    {
      "inputs": [
        {
          "internalType": "uint256",
          "name": "",
          "type": "uint256"
        },
        {
          "internalType": "enum TaskManagement.Status",
          "name": "",
          "type": "uint8"
        }
      ],
      "name": "sprintStatusCount",
      "outputs": [
        {
          "internalType": "uint256",
          "name": "",
          "type": "uint256"
        }
      ],
      "stateMutability": "view",
      "type": "function"
    },
    {
      "inputs": [
        {
          "internalType": "uint256",
          "name": "",
          "type": "uint256"
        },
        {
          "internalType": "uint256",
          "name": "",
          "type": "uint256"
        }
      ],
      "name": "sprintTasks",
      "outputs": [
        {
          "internalType": "uint256",
          "name": "",
          "type": "uint256"
        }
      ],
      "stateMutability": "view",
      "type": "function"
    },
    {
      "inputs": [
        {
          "internalType": "uint256",
          "name": "",
          "type": "uint256"
        }
      ],
      "name": "tasks",
      "outputs": [
        {
          "internalType": "uint256",
          "name": "taskId",
          "type": "uint256"
        },
        {
          "internalType": "uint256",
          "name": "sprintId",
          "type": "uint256"
        },
        {
          "internalType": "uint256",
          "name": "teamId",
          "type": "uint256"
        },
        {
          "internalType": "address",
          "name": "createdBy",
          "type": "address"
        },
        {
          "internalType": "address",
          "name": "assignedTo",
          "type": "address"
        },
        {
          "internalType": "enum TaskManagement.Status",
          "name": "status",
          "type": "uint8"
        },
        {
          "internalType": "uint256",
          "name": "estimatedHours",
          "type": "uint256"
        },
        {
          "internalType": "uint256",
          "name": "createdAt",
          "type": "uint256"
        },
        {
          "internalType": "uint256",
          "name": "updatedAt",
          "type": "uint256"
        },
        {
          "internalType": "bytes32",
          "name": "dataHash",
          "type": "bytes32"
        }
      ],
      "stateMutability": "view",
      "type": "function"
    },
    {
      "inputs": [
        {
          "internalType": "uint256",
          "name": "",
          "type": "uint256"
        },
        {
          "internalType": "enum TaskManagement.Status",
          "name": "",
          "type": "uint8"
        }
      ],
      "name": "teamStatusCount",
      "outputs": [
        {
          "internalType": "uint256",
          "name": "",
          "type": "uint256"
        }
      ],
      "stateMutability": "view",
      "type": "function"
    },
    {
      "inputs": [
        {
          "internalType": "uint256",
          "name": "",
          "type": "uint256"
        },
        {
          "internalType": "uint256",
          "name": "",
          "type": "uint256"
        }
      ],
      "name": "teamTasks",
      "outputs": [
        {
          "internalType": "uint256",
          "name": "",
          "type": "uint256"
        }
      ],
      "stateMutability": "view",
      "type": "function"
    },
    {
      "inputs": [
        {
          "internalType": "uint256",
          "name": "_taskId",
          "type": "uint256"
        },
        {
          "internalType": "bytes32",
          "name": "_newDataHash",
          "type": "bytes32"
        }
      ],
      "name": "updateTaskDataHash",
      "outputs": [],
      "stateMutability": "nonpayable",
      "type": "function"
    },
    {
      "inputs": [
        {
          "internalType": "uint256",
          "name": "_taskId",
          "type": "uint256"
        },
        {
          "internalType": "enum TaskManagement.Status",
          "name": "_newStatus",
          "type": "uint8"
        }
      ],
      "name": "updateTaskStatus",
      "outputs": [],
      "stateMutability": "nonpayable",
      "type": "function"
    },
    {
      "inputs": [
        {
          "internalType": "address",
          "name": "",
          "type": "address"
        },
        {
          "internalType": "uint256",
          "name": "",
          "type": "uint256"
        }
      ],
      "name": "userTasks",
      "outputs": [
        {
          "internalType": "uint256",
          "name": "",
          "type": "uint256"
        }
      ],
      "stateMutability": "view",
      "type": "function"
    }
  ],
  "bytecode": "0x608034608b57601f611bde38819003918201601f19168301916001600160401b038311848410176090578084926040948552833981010312608b57604b602060458360a6565b920160a6565b600780546001600160a01b039384166001600160a01b031991821617909155600880549290931691161790556001600655604051611b2490816100ba8239f35b600080fd5b634e487b7160e01b600052604160045260246000fd5b51906001600160a01b0382168203608b5756fe608080604052600436101561001357600080fd5b60003560e01c9081630d982ceb1461168f5750806328b47b2d1461166357806332c69981146111e35780635293ee8114610f5d5780635dda467a14610f3457806365a5f8bb14610f0f57806366873a5514610ec55780636f89aeae14610e94578063775131bd14610e6b5780638d97767214610dc25780638f6a5ab014610d4e57806395d5766014610cd7578063a2fd0c0914610b50578063ab9b68111461079f578063c308411714610598578063c6d319ea14610523578063ce523bb4146104bb578063d1a1b99914610372578063e545c08014610224578063eaa0e581146101ad578063f92e57881461017f578063f9f2e1d51461013f5763fdc3d8d71461011c57600080fd5b3461013a57600036600319011261013a576020600654604051908152f35b600080fd5b3461013a5761014d366117be565b9060005260026020526040600020805482101561013a5760209161017091611790565b90549060031b1c604051908152f35b3461013a5760206101a461019236611759565b90600052600583526040600020611778565b54604051908152f35b3461013a57602036600319011261013a5760048035600090815260208281526040808320838052825280832054600184528184205460028552828520546003865283862054968652948390205483519283529382015290810192909252606082019290925260808101919091528060a081015b0390f35b3461013a5761023236611759565b908060005260016020526040600020906040518083602082955493848152019060005260206000209260005b81811061035957505061027392500383611814565b6000526004602052610289826040600020611778565b5461029381611a0d565b906102a16040519283611814565b8082526102b0601f1991611a0d565b01366020830137600080916005851015925b845181101561034b576102d58186611a25565b5160005260006020528360ff60046040600020015460a01c169061033557600581101561033557861461030b575b6001016102c2565b9161032d60019161031c8588611a25565b516103278286611a25565b5261195b565b929050610303565b634e487b7160e01b600052602160045260246000fd5b6040518061022084826116f3565b845483526001948501948794506020909301920161025e565b3461013a57602036600319011261013a57600435801515806104b0575b61039890611980565b600052600060205260406000206040516103b1816117e1565b8154815260018201546020820190815260028301546040830190815260038401546001600160a01b0390811660608501908152600486015491821660808601908152959294909390929160a080850191901c60ff16600581101561033557815260058381015460c08601908152600685015460e0870190815260078601546101008801908152600890960154610120909701968752935197519651985192516001600160a01b03998a1699919390929116908210156103355761012098610499935194519551965197604051998a5260208a01526040890152606088015260808701906117d4565b60a085015260c084015260e0830152610100820152f35b50600654811061038f565b3461013a57602036600319011261013a5760043580151580610518575b806104eb575b6020906040519015158152f35b50600052600060205260ff60046040600020015460a01c16600581101561033557600460209114156104de565b5060065481106104d8565b3461013a57602036600319011261013a576004356000526001602052604060002060405190816020825491828152019160005260206000209060005b818110610582576102208561057681870382611814565b604051918291826116f3565b825484526020909301926001928301920161055f565b3461013a57602036600319011261013a5760043580151580610794575b6105be90611980565b80600052600060205260ff60046040600020015460a01c1660058110156103355760046105ec9114156119c2565b600081815260208181526040918290206002810180546007549451637d9e10f560e01b815260048101919091523360248201529193909290829060449082906001600160a01b03165afa90811561078857600091610759575b501561070957610696600483019160ff835460a01c169060018501546000526004602052610677826040600020611778565b6106818154611a00565b90555460005260056020526040600020611778565b6106a08154611a00565b905580546001600160a01b031683816106f9575b5050600160a21b60ff60a01b198254161790556007429101557fd38174c633769c7de78dd0c15200e7a0d3473c962680ed7e1b770ee1c7bc22466020604051428152a2005b61070291611a39565b83836106b4565b60405162461bcd60e51b815260206004820152602260248201527f4f6e6c79207465616d206d656d626572732063616e2072656d6f7665207461736044820152616b7360f01b6064820152608490fd5b61077b915060203d602011610781575b6107738183611814565b810190611882565b84610645565b503d610769565b6040513d6000823e3d90fd5b5060065481106105b5565b3461013a576107ad36611759565b81151580610b45575b6107bf90611980565b81600052600060205260ff60046040600020015460a01c1660058110156103355760046107ed9114156119c2565b600082815260208181526040918290206007546002820180549451637d9e10f560e01b8152600481019590955233602486015291949193919290829060449082906001600160a01b03165afa90811561078857600091610b26575b5015610ad0576004830160ff815460a01c169260058310156103355760058410158061033557838514610a7f57600060018514610a0a575b506003841461097d575b5091846109518261096e946080979660017f3fae9aebc78cdf2c62e64cc84e13aa3fe6e045383964ae584efb62987e8137089a01805460005260046020526108d6896040600020611778565b6108e08154611a00565b90555460005260046020526108f9836040600020611778565b610903815461195b565b90558054600052600560205261091d886040600020611778565b6109278154611a00565b9055546000526005602052610940826040600020611778565b61094a815461195b565b90556118f4565b60074291015561096460405180946117d4565b60208301906117d4565b336040820152426060820152a2005b939290919361033557600183148015610a00575b1561099f579192908661088a565b60405162461bcd60e51b815260206004820152603360248201527f43616e20636f6d706c657465207461736b732066726f6d20496e50726f6772656044820152727373206f72205265766965772073746174757360681b6064820152608490fd5b5060028314610991565b90508085158015610a72575b6108805760405162461bcd60e51b815260206004820152602a60248201527f43616e207374617274207461736b732066726f6d20546f646f206f72205265766044820152696965772073746174757360b01b6064820152608490fd5b5090508060028614610a16565b60405162461bcd60e51b815260206004820152602360248201527f53746174757320697320616c72656164792073657420746f20746869732076616044820152626c756560e81b6064820152608490fd5b60405162461bcd60e51b815260206004820152602860248201527f4f6e6c79207465616d206d656d626572732063616e206368616e6765207461736044820152676b2073746174757360c01b6064820152608490fd5b610b3f915060203d602011610781576107738183611814565b85610848565b5060065482106107b6565b3461013a57604036600319011261013a5760043560243581151580610ccc575b610b7990611980565b81600052600060205260ff60046040600020015460a01c166005811015610335576004610ba79114156119c2565b610bb2811515611836565b6000828152602081815260409182902060075460028201549351637d9e10f560e01b815260048101949094523360248501529093929190829060449082906001600160a01b03165afa90811561078857600091610cad575b5015610c59578160609160087fb42d43df663a7a49db47e29ee853e6b2d302cb1f5712409240ce61739744b7f594019181835493556007429101556040519182526020820152426040820152a2005b60405162461bcd60e51b815260206004820152602660248201527f4f6e6c79207465616d206d656d626572732063616e20757064617465207461736044820152656b206461746160d01b6064820152608490fd5b610cc6915060203d602011610781576107738183611814565b84610c0a565b506006548210610b70565b3461013a57602036600319011261013a576001600160a01b03610cf8611743565b166000526003602052604060002060405190816020825491828152019160005260206000209060005b818110610d38576102208561057681870382611814565b8254845260209093019260019283019201610d21565b3461013a57602036600319011261013a576004803560009081526005602090815260408083208380528252808320546001845281842054600285528285205460038652838620549686529483902054835192835293820152908101929092526060820192909252608081019190915260a090f35b3461013a57602036600319011261013a5760043560005260006020526101406040600020805490600181015490600281015460018060a01b03600383015416610e5360048401546005850154926006860154946008600788015497015497604051998a5260208a01526040890152606088015260018060a01b038116608088015260ff60a088019160a01c166117d4565b60c085015260e0840152610100830152610120820152f35b3461013a57600036600319011261013a576007546040516001600160a01b039091168152602090f35b3461013a57610ea2366117be565b9060005260016020526040600020805482101561013a5760209161017091611790565b3461013a57604036600319011261013a57610ede611743565b6001600160a01b031660009081526003602052604090208054602435919082101561013a5760209161017091611790565b3461013a5760206101a4610f2236611759565b90600052600483526040600020611778565b3461013a57600036600319011261013a576008546040516001600160a01b039091168152602090f35b3461013a57604036600319011261013a57600435610f7961172d565b811515806111d8575b610f8b90611980565b81600052600060205260ff60046040600020015460a01c166005811015610335576004610fb99114156119c2565b6000828152602081815260409182902060028101546007549351637d9e10f560e01b81526004810182905233602482015290946001600160a01b0390941693919281604481875afa908115610788576000916111b9575b5015611169576001600160a01b03811680151594909390856110cd575b505050916080918360047f7ae147e273ba99b6c6489353472d216a5b3c883ea0d5e7f25377efd443d8b166950160018060a01b0381541693846110be575b6110a2575b826001600160601b0360a01b8254161790556007429101556040519182526020820152336040820152426060820152a2005b8260005260036020526110b9876040600020611918565b611070565b6110c88886611a39565b61106b565b604051637d9e10f560e01b815260048101919091526001600160a01b039290921660248301529093919290602090859060449082905afa928315610788576111416080947f7ae147e273ba99b6c6489353472d216a5b3c883ea0d5e7f25377efd443d8b1669660009161114a575b5061189a565b9193819361102d565b611163915060203d602011610781576107738183611814565b8861113b565b60405162461bcd60e51b815260206004820152602260248201527f4f6e6c79207465616d206d656d626572732063616e2061737369676e207461736044820152616b7360f01b6064820152608490fd5b6111d2915060203d602011610781576107738183611814565b86611010565b506006548210610f82565b3461013a57608036600319011261013a576004356111ff61172d565b906064359061120f821515611836565b6008546040516270544f60e11b8152600481018390526001600160a01b039091169190602081602481865afa90811561078857600091611644575b501561160857610100602492604051938480926317dd477f60e11b82528560048301525afa918215610788576000926115a7575b50600754604051637d9e10f560e01b8152600481018490523360248201526001600160a01b039091169390602081604481885afa90811561078857600091611588575b5015611538576001600160a01b0385169485151594856114ca575b5050600654936040516112ee816117e1565b85815260208101968488526040820193868552606083019333855260808401938385528960a082016000815260c0830197604435895260e0840199428b5261010085019e8f429052610120860194888652600052600060205260406000209551865551600186015551600285015560018060a01b03905116600384019060018060a01b03166001600160601b0360a01b825416179055600483019660018060a01b039060018060a01b03905116166001600160601b0360a01b885416178755519060058210156103355760209c8c997fe0334b23141be4a09cc089d98a72aadf6694aa0e4979eaa208d8d7e87584432d996113ed60089560a09b6118f4565b516005860155516006850155516007840155519101558660005260018a52611419866040600020611918565b8760005260028a5261142f866040600020611918565b6114af575b85600052600489526040806000206000908180528b5220611455815461195b565b905586600052600589526040806000206000908180528b5220611478815461195b565b905561148560065461195b565b600655604051913383528983015260443560408301526060820152426080820152a4604051908152f35b81600052600389526114c5856040600020611918565b611434565b604051637d9e10f560e01b8152600481018690526001600160a01b03929092166024830152602090829060449082905afa80156107885761151291600091611519575061189a565b85806112dc565b611532915060203d602011610781576107738183611814565b8761113b565b60405162461bcd60e51b815260206004820152602260248201527f4f6e6c79207465616d206d656d626572732063616e20637265617465207461736044820152616b7360f01b6064820152608490fd5b6115a1915060203d602011610781576107738183611814565b866112c1565b9091610100823d8211611600575b816115c36101009383611814565b810103126115f957815160208301519092906001600160a01b038116036115fc576040600491015110156115f95750908461127e565b80fd5b5080fd5b3d91506115b5565b60405162461bcd60e51b8152602060048201526014602482015273537072696e74206973206e6f742061637469766560601b6044820152606490fd5b61165d915060203d602011610781576107738183611814565b8561124a565b3461013a57602036600319011261013a5760043560005260016020526020604060002054604051908152f35b3461013a57602036600319011261013a57600435600052600260205260406000208054808352602083019160005260206000209060005b8181106116dd576102208561057681870382611814565b82548452602090930192600192830192016116c6565b602060408183019282815284518094520192019060005b8181106117175750505090565b825184526020938401939092019160010161170a565b602435906001600160a01b038216820361013a57565b600435906001600160a01b038216820361013a57565b604090600319011261013a5760043590602435600581101561013a5790565b90600581101561033557600052602052604060002090565b80548210156117a85760005260206000200190600090565b634e487b7160e01b600052603260045260246000fd5b604090600319011261013a576004359060243590565b9060058210156103355752565b610140810190811067ffffffffffffffff8211176117fe57604052565b634e487b7160e01b600052604160045260246000fd5b90601f8019910116810190811067ffffffffffffffff8211176117fe57604052565b1561183d57565b60405162461bcd60e51b815260206004820152601960248201527f4461746120686173682063616e6e6f7420626520656d707479000000000000006044820152606490fd5b9081602091031261013a5751801515810361013a5790565b156118a157565b60405162461bcd60e51b815260206004820152602560248201527f43616e206f6e6c792061737369676e207461736b7320746f207465616d206d656044820152646d6265727360d81b6064820152608490fd5b90600581101561033557815460ff60a01b191660a09190911b60ff60a01b16179055565b90815491680100000000000000008310156117fe578261194091600161195995018155611790565b90919082549060031b91821b91600019901b1916179055565b565b600019811461196a5760010190565b634e487b7160e01b600052601160045260246000fd5b1561198757565b60405162461bcd60e51b815260206004820152601360248201527215185cdac8191bd95cc81b9bdd08195e1a5cdd606a1b6044820152606490fd5b156119c957565b60405162461bcd60e51b815260206004820152600f60248201526e15185cdac81a5cc81c995b5bdd9959608a1b6044820152606490fd5b801561196a576000190190565b67ffffffffffffffff81116117fe5760051b60200190565b80518210156117a85760209160051b010190565b6001600160a01b03166000908152600360205260408120905b815480821015611ae85783611a678385611790565b90549060031b1c14611a7c5750600101611a52565b919250600019820191821161196a57611940611a9b611aa99385611790565b90549060031b1c9184611790565b80548015611ad2576000190190611ac08282611790565b8154906000199060031b1b1916905555565b634e487b7160e01b600052603160045260246000fd5b5050505056fea264697066735822122048939b35c0e4b7e869c5747f3fe8ea4d322ae1bc2f1b4c147e194cdb587da58f64736f6c634300081c0033",
  "linkReferences": {},
  "deployedLinkReferences": {}
}